{
  "contractName": "Acme",
  "abi": [
    {
      "inputs": [],
      "stateMutability": "nonpayable",
      "type": "constructor"
    },
    {
      "inputs": [],
      "name": "owner",
      "outputs": [
        {
          "internalType": "address",
          "name": "",
          "type": "address"
        }
      ],
      "stateMutability": "view",
      "type": "function"
    },
    {
      "inputs": [
        {
          "internalType": "address",
          "name": "",
          "type": "address"
        }
      ],
      "name": "widgetbalance",
      "outputs": [
        {
          "internalType": "uint256",
          "name": "",
          "type": "uint256"
        }
      ],
      "stateMutability": "view",
      "type": "function"
    },
    {
      "inputs": [
        {
          "internalType": "address",
          "name": "to",
          "type": "address"
        },
        {
          "internalType": "uint256",
          "name": "value",
          "type": "uint256"
        }
      ],
      "name": "transfer",
      "outputs": [],
      "stateMutability": "nonpayable",
      "type": "function"
    },
    {
      "inputs": [
        {
          "internalType": "uint256",
          "name": "amount",
          "type": "uint256"
        }
      ],
      "name": "mint",
      "outputs": [],
      "stateMutability": "nonpayable",
      "type": "function"
    },
    {
      "inputs": [
        {
          "internalType": "uint256",
          "name": "amount",
          "type": "uint256"
        }
      ],
      "name": "_burn",
      "outputs": [],
      "stateMutability": "nonpayable",
      "type": "function"
    },
    {
      "inputs": [
        {
          "internalType": "uint256",
          "name": "amount",
          "type": "uint256"
        }
      ],
      "name": "pay",
      "outputs": [],
      "stateMutability": "payable",
      "type": "function"
    },
    {
      "inputs": [],
      "name": "withdraw",
      "outputs": [],
      "stateMutability": "nonpayable",
      "type": "function"
    }
  ],
  "bytecode": "0x608060405234801561001057600080fd5b50600180546001600160a01b031916339081179091556000908152602081905260409020620186a0905561048a806100496000396000f3fe6080604052600436106100705760003560e01c8063a0712d681161004e578063a0712d68146100e9578063a9059cbb14610109578063c290d69114610129578063e01995e91461013c57600080fd5b80633ccfd60b146100755780638da5cb5b1461008c5780639b1f9e74146100c9575b600080fd5b34801561008157600080fd5b5061008a610177565b005b34801561009857600080fd5b506001546100ac906001600160a01b031681565b6040516001600160a01b0390911681526020015b60405180910390f35b3480156100d557600080fd5b5061008a6100e4366004610367565b6101d9565b3480156100f557600080fd5b5061008a610104366004610367565b61026e565b34801561011557600080fd5b5061008a61012436600461039c565b6102be565b61008a610137366004610367565b61035a565b34801561014857600080fd5b506101696101573660046103c6565b60006020819052908152604090205481565b6040519081526020016100c0565b6001546001600160a01b031633146101aa5760405162461bcd60e51b81526004016101a1906103e8565b60405180910390fd5b60405133904780156108fc02916000818181858888f193505050501580156101d6573d6000803e3d6000fd5b50565b6001546001600160a01b031633146102035760405162461bcd60e51b81526004016101a1906103e8565b6001546001600160a01b031660009081526020819052604090205481111561022a57600080fd5b6001546001600160a01b0316600090815260208190526040902054610250908290610425565b6001546001600160a01b031660009081526020819052604090205550565b6001546001600160a01b031633146102985760405162461bcd60e51b81526004016101a1906103e8565b6001546001600160a01b031660009081526020819052604090205461025090829061043c565b336000908152602081905260409020548111156102da57600080fd5b33600090815260208190526040812080548392906102f9908490610425565b918290555033600090815260208190526040808220929092556001600160a01b0385168152908120805484935090919061033490849061043c565b91829055506001600160a01b039093166000908152602081905260409020929092555050565b803410156101d657600080fd5b60006020828403121561037957600080fd5b5035919050565b80356001600160a01b038116811461039757600080fd5b919050565b600080604083850312156103af57600080fd5b6103b883610380565b946020939093013593505050565b6000602082840312156103d857600080fd5b6103e182610380565b9392505050565b6020808252600d908201526c2737ba103a34329037bbb732b960991b604082015260600190565b634e487b7160e01b600052601160045260246000fd5b6000828210156104375761043761040f565b500390565b6000821982111561044f5761044f61040f565b50019056fea26469706673582212209f4b766ff739812f098c9eb9c02ae83e97f8e79f40b0f171cfee3baaaac764ca64736f6c63430008080033",
  "immutableReferences": {},
  "source": "//SPDX-License-Identifier: MIT\r\npragma solidity 0.8.8;\r\ncontract Acme {\r\n    mapping (address => uint256) public widgetbalance;\r\n    address  public owner;\r\n\r\n    constructor(){\r\n      owner = msg.sender;\r\n      widgetbalance[owner] = 100000;\r\n    }\r\n     \r\n  \r\n  function transfer(address to, uint256 value) public   {\r\n    require(value <= widgetbalance[msg.sender]);\r\n    widgetbalance[msg.sender] = widgetbalance[msg.sender] -= value;\r\n    widgetbalance[to] = widgetbalance[to] += value;\r\n  }\r\n \r\n    function mint( uint256 amount) public  {\r\n    require(msg.sender == owner, \"Not the owner\");\r\n    widgetbalance[owner] = widgetbalance[owner] + amount;\r\n  }\r\n    function _burn( uint256 amount) public {\r\n    require(msg.sender == owner, \"Not the owner\");\r\n    require(amount <= widgetbalance[owner]);\r\n    widgetbalance[owner] = widgetbalance[owner]- amount;\r\n  \r\n  }\r\n  \r\n  function pay( uint256 amount) public payable {\r\n      require(msg.value >= amount );\r\n   \r\n  }\r\n  function withdraw() public {\r\n    require(msg.sender == owner, \"Not the owner\");\r\n  payable(msg.sender).transfer(address(this).balance);\r\n  }\r\n}",
  "sourcePath": "C:\\Users\\jsati\\acme-widget\\frontend\\contracts\\Acme.sol",
  "compiler": {
    "name": "solc",
    "version": "0.8.8+commit.dddeac2f.Emscripten.clang"
  },
  "schemaVersion": "3.4.9",
  "updatedAt": "2022-09-12T06:38:04.955Z",
  "devdoc": {
    "kind": "dev",
    "methods": {},
    "version": 1
  },
  "userdoc": {
    "kind": "user",
    "methods": {},
    "version": 1
  }
}